{
  "_format": "hh-sol-artifact-1",
  "contractName": "MarketingPlatform",
  "sourceName": "contracts/MarketingPlatform.sol",
  "abi": [
    {
      "anonymous": false,
      "inputs": [
        {
          "indexed": false,
          "internalType": "uint256",
          "name": "campaignId",
          "type": "uint256"
        },
        {
          "indexed": false,
          "internalType": "address",
          "name": "owner",
          "type": "address"
        },
        {
          "indexed": false,
          "internalType": "string",
          "name": "title",
          "type": "string"
        }
      ],
      "name": "CampaignCreated",
      "type": "event"
    },
    {
      "anonymous": false,
      "inputs": [
        {
          "indexed": false,
          "internalType": "uint256",
          "name": "campaignId",
          "type": "uint256"
        },
        {
          "indexed": false,
          "internalType": "address",
          "name": "participant",
          "type": "address"
        }
      ],
      "name": "CampaignParticipated",
      "type": "event"
    },
    {
      "anonymous": false,
      "inputs": [
        {
          "indexed": false,
          "internalType": "uint256",
          "name": "campaignId",
          "type": "uint256"
        },
        {
          "indexed": false,
          "internalType": "address",
          "name": "participant",
          "type": "address"
        },
        {
          "indexed": false,
          "internalType": "uint256",
          "name": "amount",
          "type": "uint256"
        }
      ],
      "name": "RewardClaimed",
      "type": "event"
    },
    {
      "inputs": [],
      "name": "campaignCount",
      "outputs": [
        {
          "internalType": "uint256",
          "name": "",
          "type": "uint256"
        }
      ],
      "stateMutability": "view",
      "type": "function"
    },
    {
      "inputs": [
        {
          "internalType": "uint256",
          "name": "",
          "type": "uint256"
        }
      ],
      "name": "campaigns",
      "outputs": [
        {
          "internalType": "address",
          "name": "owner",
          "type": "address"
        },
        {
          "internalType": "string",
          "name": "title",
          "type": "string"
        },
        {
          "internalType": "string",
          "name": "description",
          "type": "string"
        },
        {
          "internalType": "uint256",
          "name": "budget",
          "type": "uint256"
        },
        {
          "internalType": "uint256",
          "name": "reward",
          "type": "uint256"
        },
        {
          "internalType": "uint256",
          "name": "startTime",
          "type": "uint256"
        },
        {
          "internalType": "uint256",
          "name": "endTime",
          "type": "uint256"
        },
        {
          "internalType": "bool",
          "name": "isActive",
          "type": "bool"
        },
        {
          "internalType": "uint256",
          "name": "participantCount",
          "type": "uint256"
        }
      ],
      "stateMutability": "view",
      "type": "function"
    },
    {
      "inputs": [
        {
          "internalType": "uint256",
          "name": "_campaignId",
          "type": "uint256"
        }
      ],
      "name": "claimReward",
      "outputs": [],
      "stateMutability": "nonpayable",
      "type": "function"
    },
    {
      "inputs": [
        {
          "internalType": "string",
          "name": "_title",
          "type": "string"
        },
        {
          "internalType": "string",
          "name": "_description",
          "type": "string"
        },
        {
          "internalType": "uint256",
          "name": "_budget",
          "type": "uint256"
        },
        {
          "internalType": "uint256",
          "name": "_reward",
          "type": "uint256"
        },
        {
          "internalType": "uint256",
          "name": "_duration",
          "type": "uint256"
        }
      ],
      "name": "createCampaign",
      "outputs": [],
      "stateMutability": "payable",
      "type": "function"
    },
    {
      "inputs": [
        {
          "internalType": "uint256",
          "name": "_campaignId",
          "type": "uint256"
        }
      ],
      "name": "getCampaignDetails",
      "outputs": [
        {
          "internalType": "address",
          "name": "owner",
          "type": "address"
        },
        {
          "internalType": "string",
          "name": "title",
          "type": "string"
        },
        {
          "internalType": "string",
          "name": "description",
          "type": "string"
        },
        {
          "internalType": "uint256",
          "name": "budget",
          "type": "uint256"
        },
        {
          "internalType": "uint256",
          "name": "reward",
          "type": "uint256"
        },
        {
          "internalType": "uint256",
          "name": "startTime",
          "type": "uint256"
        },
        {
          "internalType": "uint256",
          "name": "endTime",
          "type": "uint256"
        },
        {
          "internalType": "bool",
          "name": "isActive",
          "type": "bool"
        },
        {
          "internalType": "uint256",
          "name": "participantCount",
          "type": "uint256"
        }
      ],
      "stateMutability": "view",
      "type": "function"
    },
    {
      "inputs": [],
      "name": "getCampaigns",
      "outputs": [
        {
          "internalType": "uint256[]",
          "name": "ids",
          "type": "uint256[]"
        },
        {
          "internalType": "address[]",
          "name": "owners",
          "type": "address[]"
        },
        {
          "internalType": "string[]",
          "name": "titles",
          "type": "string[]"
        },
        {
          "internalType": "string[]",
          "name": "descriptions",
          "type": "string[]"
        },
        {
          "internalType": "uint256[]",
          "name": "budgets",
          "type": "uint256[]"
        },
        {
          "internalType": "uint256[]",
          "name": "rewards",
          "type": "uint256[]"
        },
        {
          "internalType": "uint256[]",
          "name": "startTimes",
          "type": "uint256[]"
        },
        {
          "internalType": "uint256[]",
          "name": "endTimes",
          "type": "uint256[]"
        },
        {
          "internalType": "bool[]",
          "name": "isActives",
          "type": "bool[]"
        },
        {
          "internalType": "uint256[]",
          "name": "participantCounts",
          "type": "uint256[]"
        }
      ],
      "stateMutability": "view",
      "type": "function"
    },
    {
      "inputs": [],
      "name": "getContractBalance",
      "outputs": [
        {
          "internalType": "uint256",
          "name": "",
          "type": "uint256"
        }
      ],
      "stateMutability": "view",
      "type": "function"
    },
    {
      "inputs": [
        {
          "internalType": "uint256",
          "name": "_campaignId",
          "type": "uint256"
        }
      ],
      "name": "participateInCampaign",
      "outputs": [],
      "stateMutability": "nonpayable",
      "type": "function"
    }
  ],
  "bytecode": "0x608060405234801561001057600080fd5b50612746806100206000396000f3fe60806040526004361061007b5760003560e01c8063a6b036331161004e578063a6b0363314610144578063ae169a5014610178578063b5c89219146101a1578063d993de62146101bd5761007b565b8063141961bc1461008057806317743837146100c55780636f9fb98a146100ee5780637274e30d14610119575b600080fd5b34801561008c57600080fd5b506100a760048036038101906100a291906113c6565b610202565b6040516100bc999897969594939291906114ee565b60405180910390f35b3480156100d157600080fd5b506100ec60048036038101906100e791906113c6565b61038d565b005b3480156100fa57600080fd5b506101036105c2565b6040516101109190611589565b60405180910390f35b34801561012557600080fd5b5061012e6105ca565b60405161013b9190611589565b60405180910390f35b34801561015057600080fd5b506101596105d0565b60405161016f9a999897969594939291906118ea565b60405180910390f35b34801561018457600080fd5b5061019f600480360381019061019a91906113c6565b610bf4565b005b6101bb60048036038101906101b69190611b01565b610e87565b005b3480156101c957600080fd5b506101e460048036038101906101df91906113c6565b6111c8565b6040516101f9999897969594939291906114ee565b60405180910390f35b60006020528060005260406000206000915090508060000160009054906101000a900473ffffffffffffffffffffffffffffffffffffffff169080600101805461024b90611be3565b80601f016020809104026020016040519081016040528092919081815260200182805461027790611be3565b80156102c45780601f10610299576101008083540402835291602001916102c4565b820191906000526020600020905b8154815290600101906020018083116102a757829003601f168201915b5050505050908060020180546102d990611be3565b80601f016020809104026020016040519081016040528092919081815260200182805461030590611be3565b80156103525780601f1061032757610100808354040283529160200191610352565b820191906000526020600020905b81548152906001019060200180831161033557829003601f168201915b5050505050908060030154908060040154908060050154908060060154908060070160009054906101000a900460ff16908060090154905089565b600080600083815260200190815260200160002090508060070160009054906101000a900460ff166103f4576040517f08c379a00000000000000000000000000000000000000000000000000000000081526004016103eb90611c60565b60405180910390fd5b806005015442101561043b576040517f08c379a000000000000000000000000000000000000000000000000000000000815260040161043290611ccc565b60405180910390fd5b8060060154421115610482576040517f08c379a000000000000000000000000000000000000000000000000000000000815260040161047990611d38565b60405180910390fd5b8060080160003373ffffffffffffffffffffffffffffffffffffffff1673ffffffffffffffffffffffffffffffffffffffff16815260200190815260200160002060009054906101000a900460ff1615610511576040517f08c379a000000000000000000000000000000000000000000000000000000000815260040161050890611da4565b60405180910390fd5b60018160080160003373ffffffffffffffffffffffffffffffffffffffff1673ffffffffffffffffffffffffffffffffffffffff16815260200190815260200160002060006101000a81548160ff02191690831515021790555080600901600081548092919061058090611df3565b91905055507f182539b3903ec1ca0a49cf5cff0d68c00f277c5b5816e88b928a8b377ddc49c182336040516105b6929190611e3b565b60405180910390a15050565b600047905090565b60015481565b606080606080606080606080606080600060015490508067ffffffffffffffff811115610600576105ff6119d6565b5b60405190808252806020026020018201604052801561062e5781602001602082028036833780820191505090505b509a508067ffffffffffffffff81111561064b5761064a6119d6565b5b6040519080825280602002602001820160405280156106795781602001602082028036833780820191505090505b5099508067ffffffffffffffff811115610696576106956119d6565b5b6040519080825280602002602001820160405280156106c957816020015b60608152602001906001900390816106b45790505b5098508067ffffffffffffffff8111156106e6576106e56119d6565b5b60405190808252806020026020018201604052801561071957816020015b60608152602001906001900390816107045790505b5097508067ffffffffffffffff811115610736576107356119d6565b5b6040519080825280602002602001820160405280156107645781602001602082028036833780820191505090505b5096508067ffffffffffffffff811115610781576107806119d6565b5b6040519080825280602002602001820160405280156107af5781602001602082028036833780820191505090505b5095508067ffffffffffffffff8111156107cc576107cb6119d6565b5b6040519080825280602002602001820160405280156107fa5781602001602082028036833780820191505090505b5094508067ffffffffffffffff811115610817576108166119d6565b5b6040519080825280602002602001820160405280156108455781602001602082028036833780820191505090505b5093508067ffffffffffffffff811115610862576108616119d6565b5b6040519080825280602002602001820160405280156108905781602001602082028036833780820191505090505b5092508067ffffffffffffffff8111156108ad576108ac6119d6565b5b6040519080825280602002602001820160405280156108db5781602001602082028036833780820191505090505b50915060005b81811015610be65760008060008381526020019081526020016000209050818d838151811061091357610912611e64565b5b6020026020010181815250508060000160009054906101000a900473ffffffffffffffffffffffffffffffffffffffff168c838151811061095757610956611e64565b5b602002602001019073ffffffffffffffffffffffffffffffffffffffff16908173ffffffffffffffffffffffffffffffffffffffff16815250508060010180546109a090611be3565b80601f01602080910402602001604051908101604052809291908181526020018280546109cc90611be3565b8015610a195780601f106109ee57610100808354040283529160200191610a19565b820191906000526020600020905b8154815290600101906020018083116109fc57829003601f168201915b50505050508b8381518110610a3157610a30611e64565b5b6020026020010181905250806002018054610a4b90611be3565b80601f0160208091040260200160405190810160405280929190818152602001828054610a7790611be3565b8015610ac45780601f10610a9957610100808354040283529160200191610ac4565b820191906000526020600020905b815481529060010190602001808311610aa757829003601f168201915b50505050508a8381518110610adc57610adb611e64565b5b60200260200101819052508060030154898381518110610aff57610afe611e64565b5b6020026020010181815250508060040154888381518110610b2357610b22611e64565b5b6020026020010181815250508060050154878381518110610b4757610b46611e64565b5b6020026020010181815250508060060154868381518110610b6b57610b6a611e64565b5b6020026020010181815250508060070160009054906101000a900460ff16858381518110610b9c57610b9b611e64565b5b6020026020010190151590811515815250508060090154848381518110610bc657610bc5611e64565b5b602002602001018181525050508080610bde90611df3565b9150506108e1565b505090919293949596979899565b600080600083815260200190815260200160002090508060080160003373ffffffffffffffffffffffffffffffffffffffff1673ffffffffffffffffffffffffffffffffffffffff16815260200190815260200160002060009054906101000a900460ff16610c98576040517f08c379a0000000000000000000000000000000000000000000000000000000008152600401610c8f90611edf565b60405180910390fd5b80600601544211610cde576040517f08c379a0000000000000000000000000000000000000000000000000000000008152600401610cd590611f4b565b60405180910390fd5b8060070160009054906101000a900460ff16610d2f576040517f08c379a0000000000000000000000000000000000000000000000000000000008152600401610d2690611c60565b60405180910390fd5b8060040154471015610d76576040517f08c379a0000000000000000000000000000000000000000000000000000000008152600401610d6d90611fb7565b60405180910390fd5b60008160070160006101000a81548160ff02191690831515021790555060003373ffffffffffffffffffffffffffffffffffffffff168260040154604051610dbd90612008565b60006040518083038185875af1925050503d8060008114610dfa576040519150601f19603f3d011682016040523d82523d6000602084013e610dff565b606091505b5050905080610e43576040517f08c379a0000000000000000000000000000000000000000000000000000000008152600401610e3a90612069565b60405180910390fd5b7f24b5efa61dd1cfc659205a97fb8ed868f3cb8c81922bab2b96423e5de1de2cb783338460040154604051610e7a93929190612089565b60405180910390a1505050565b6000855111610ecb576040517f08c379a0000000000000000000000000000000000000000000000000000000008152600401610ec29061210c565b60405180910390fd5b6000845111610f0f576040517f08c379a0000000000000000000000000000000000000000000000000000000008152600401610f0690612178565b60405180910390fd5b60003411610f52576040517f08c379a0000000000000000000000000000000000000000000000000000000008152600401610f49906121e4565b60405180910390fd5b823414610f94576040517f08c379a0000000000000000000000000000000000000000000000000000000008152600401610f8b90612250565b60405180910390fd5b60008311610fd7576040517f08c379a0000000000000000000000000000000000000000000000000000000008152600401610fce906122bc565b60405180910390fd5b6000821161101a576040517f08c379a000000000000000000000000000000000000000000000000000000000815260040161101190612328565b60405180910390fd5b6000811161105d576040517f08c379a000000000000000000000000000000000000000000000000000000000815260040161105490612394565b60405180910390fd5b828211156110a0576040517f08c379a000000000000000000000000000000000000000000000000000000000815260040161109790612400565b60405180910390fd5b6000600160008154809291906110b590611df3565b91905055905060008060008381526020019081526020016000209050338160000160006101000a81548173ffffffffffffffffffffffffffffffffffffffff021916908373ffffffffffffffffffffffffffffffffffffffff1602179055508681600101908161112591906125cc565b508581600201908161113791906125cc565b50848160030181905550838160040181905550428160050181905550824261115f919061269e565b816006018190555060018160070160006101000a81548160ff0219169083151502179055507fc04c663886cae794dc52158f70fe6c8ee3b0140d4f48647282f9b693ff688a658233896040516111b7939291906126d2565b60405180910390a150505050505050565b600060608060008060008060008060008060008c815260200190815260200160002090508060000160009054906101000a900473ffffffffffffffffffffffffffffffffffffffff16816001018260020183600301548460040154856005015486600601548760070160009054906101000a900460ff16886009015487805461125090611be3565b80601f016020809104026020016040519081016040528092919081815260200182805461127c90611be3565b80156112c95780601f1061129e576101008083540402835291602001916112c9565b820191906000526020600020905b8154815290600101906020018083116112ac57829003601f168201915b505050505097508680546112dc90611be3565b80601f016020809104026020016040519081016040528092919081815260200182805461130890611be3565b80156113555780601f1061132a57610100808354040283529160200191611355565b820191906000526020600020905b81548152906001019060200180831161133857829003601f168201915b50505050509650995099509950995099509950995099509950509193959799909294969850565b6000604051905090565b600080fd5b600080fd5b6000819050919050565b6113a381611390565b81146113ae57600080fd5b50565b6000813590506113c08161139a565b92915050565b6000602082840312156113dc576113db611386565b5b60006113ea848285016113b1565b91505092915050565b600073ffffffffffffffffffffffffffffffffffffffff82169050919050565b600061141e826113f3565b9050919050565b61142e81611413565b82525050565b600081519050919050565b600082825260208201905092915050565b60005b8381101561146e578082015181840152602081019050611453565b60008484015250505050565b6000601f19601f8301169050919050565b600061149682611434565b6114a0818561143f565b93506114b0818560208601611450565b6114b98161147a565b840191505092915050565b6114cd81611390565b82525050565b60008115159050919050565b6114e8816114d3565b82525050565b600061012082019050611504600083018c611425565b8181036020830152611516818b61148b565b9050818103604083015261152a818a61148b565b905061153960608301896114c4565b61154660808301886114c4565b61155360a08301876114c4565b61156060c08301866114c4565b61156d60e08301856114df565b61157b6101008301846114c4565b9a9950505050505050505050565b600060208201905061159e60008301846114c4565b92915050565b600081519050919050565b600082825260208201905092915050565b6000819050602082019050919050565b6115d981611390565b82525050565b60006115eb83836115d0565b60208301905092915050565b6000602082019050919050565b600061160f826115a4565b61161981856115af565b9350611624836115c0565b8060005b8381101561165557815161163c88826115df565b9750611647836115f7565b925050600181019050611628565b5085935050505092915050565b600081519050919050565b600082825260208201905092915050565b6000819050602082019050919050565b61169781611413565b82525050565b60006116a9838361168e565b60208301905092915050565b6000602082019050919050565b60006116cd82611662565b6116d7818561166d565b93506116e28361167e565b8060005b838110156117135781516116fa888261169d565b9750611705836116b5565b9250506001810190506116e6565b5085935050505092915050565b600081519050919050565b600082825260208201905092915050565b6000819050602082019050919050565b600082825260208201905092915050565b600061176882611434565b611772818561174c565b9350611782818560208601611450565b61178b8161147a565b840191505092915050565b60006117a2838361175d565b905092915050565b6000602082019050919050565b60006117c282611720565b6117cc818561172b565b9350836020820285016117de8561173c565b8060005b8581101561181a57848403895281516117fb8582611796565b9450611806836117aa565b925060208a019950506001810190506117e2565b50829750879550505050505092915050565b600081519050919050565b600082825260208201905092915050565b6000819050602082019050919050565b611861816114d3565b82525050565b60006118738383611858565b60208301905092915050565b6000602082019050919050565b60006118978261182c565b6118a18185611837565b93506118ac83611848565b8060005b838110156118dd5781516118c48882611867565b97506118cf8361187f565b9250506001810190506118b0565b5085935050505092915050565b6000610140820190508181036000830152611905818d611604565b90508181036020830152611919818c6116c2565b9050818103604083015261192d818b6117b7565b90508181036060830152611941818a6117b7565b905081810360808301526119558189611604565b905081810360a08301526119698188611604565b905081810360c083015261197d8187611604565b905081810360e08301526119918186611604565b90508181036101008301526119a6818561188c565b90508181036101208301526119bb8184611604565b90509b9a5050505050505050505050565b600080fd5b600080fd5b7f4e487b7100000000000000000000000000000000000000000000000000000000600052604160045260246000fd5b611a0e8261147a565b810181811067ffffffffffffffff82111715611a2d57611a2c6119d6565b5b80604052505050565b6000611a4061137c565b9050611a4c8282611a05565b919050565b600067ffffffffffffffff821115611a6c57611a6b6119d6565b5b611a758261147a565b9050602081019050919050565b82818337600083830152505050565b6000611aa4611a9f84611a51565b611a36565b905082815260208101848484011115611ac057611abf6119d1565b5b611acb848285611a82565b509392505050565b600082601f830112611ae857611ae76119cc565b5b8135611af8848260208601611a91565b91505092915050565b600080600080600060a08688031215611b1d57611b1c611386565b5b600086013567ffffffffffffffff811115611b3b57611b3a61138b565b5b611b4788828901611ad3565b955050602086013567ffffffffffffffff811115611b6857611b6761138b565b5b611b7488828901611ad3565b9450506040611b85888289016113b1565b9350506060611b96888289016113b1565b9250506080611ba7888289016113b1565b9150509295509295909350565b7f4e487b7100000000000000000000000000000000000000000000000000000000600052602260045260246000fd5b60006002820490506001821680611bfb57607f821691505b602082108103611c0e57611c0d611bb4565b5b50919050565b7f43616d706169676e206973206e6f742061637469766500000000000000000000600082015250565b6000611c4a60168361143f565b9150611c5582611c14565b602082019050919050565b60006020820190508181036000830152611c7981611c3d565b9050919050565b7f43616d706169676e206861736e27742073746172746564000000000000000000600082015250565b6000611cb660178361143f565b9150611cc182611c80565b602082019050919050565b60006020820190508181036000830152611ce581611ca9565b9050919050565b7f43616d706169676e2068617320656e6465640000000000000000000000000000600082015250565b6000611d2260128361143f565b9150611d2d82611cec565b602082019050919050565b60006020820190508181036000830152611d5181611d15565b9050919050565b7f416c726561647920706172746963697061746564000000000000000000000000600082015250565b6000611d8e60148361143f565b9150611d9982611d58565b602082019050919050565b60006020820190508181036000830152611dbd81611d81565b9050919050565b7f4e487b7100000000000000000000000000000000000000000000000000000000600052601160045260246000fd5b6000611dfe82611390565b91507fffffffffffffffffffffffffffffffffffffffffffffffffffffffffffffffff8203611e3057611e2f611dc4565b5b600182019050919050565b6000604082019050611e5060008301856114c4565b611e5d6020830184611425565b9392505050565b7f4e487b7100000000000000000000000000000000000000000000000000000000600052603260045260246000fd5b7f4e6f742061207061727469636970616e74000000000000000000000000000000600082015250565b6000611ec960118361143f565b9150611ed482611e93565b602082019050919050565b60006020820190508181036000830152611ef881611ebc565b9050919050565b7f43616d706169676e206861736e277420656e6465640000000000000000000000600082015250565b6000611f3560158361143f565b9150611f4082611eff565b602082019050919050565b60006020820190508181036000830152611f6481611f28565b9050919050565b7f436f6e74726163742068617320696e73756666696369656e742066756e647300600082015250565b6000611fa1601f8361143f565b9150611fac82611f6b565b602082019050919050565b60006020820190508181036000830152611fd081611f94565b9050919050565b600081905092915050565b50565b6000611ff2600083611fd7565b9150611ffd82611fe2565b600082019050919050565b600061201382611fe5565b9150819050919050565b7f526577617264207472616e73666572206661696c656400000000000000000000600082015250565b600061205360168361143f565b915061205e8261201d565b602082019050919050565b6000602082019050818103600083015261208281612046565b9050919050565b600060608201905061209e60008301866114c4565b6120ab6020830185611425565b6120b860408301846114c4565b949350505050565b7f5469746c652063616e6e6f7420626520656d7074790000000000000000000000600082015250565b60006120f660158361143f565b9150612101826120c0565b602082019050919050565b60006020820190508181036000830152612125816120e9565b9050919050565b7f4465736372697074696f6e2063616e6e6f7420626520656d7074790000000000600082015250565b6000612162601b8361143f565b915061216d8261212c565b602082019050919050565b6000602082019050818103600083015261219181612155565b9050919050565b7f4d7573742073656e64204554482077697468207472616e73616374696f6e0000600082015250565b60006121ce601e8361143f565b91506121d982612198565b602082019050919050565b600060208201905081810360008301526121fd816121c1565b9050919050565b7f53656e7420455448206d757374206d6174636820627564676574000000000000600082015250565b600061223a601a8361143f565b915061224582612204565b602082019050919050565b600060208201905081810360008301526122698161222d565b9050919050565b7f427564676574206d7573742062652067726561746572207468616e2030000000600082015250565b60006122a6601d8361143f565b91506122b182612270565b602082019050919050565b600060208201905081810360008301526122d581612299565b9050919050565b7f526577617264206d7573742062652067726561746572207468616e2030000000600082015250565b6000612312601d8361143f565b915061231d826122dc565b602082019050919050565b6000602082019050818103600083015261234181612305565b9050919050565b7f4475726174696f6e206d7573742062652067726561746572207468616e203000600082015250565b600061237e601f8361143f565b915061238982612348565b602082019050919050565b600060208201905081810360008301526123ad81612371565b9050919050565b7f5265776172642063616e6e6f7420657863656564206275646765740000000000600082015250565b60006123ea601b8361143f565b91506123f5826123b4565b602082019050919050565b60006020820190508181036000830152612419816123dd565b9050919050565b60008190508160005260206000209050919050565b60006020601f8301049050919050565b600082821b905092915050565b6000600883026124827fffffffffffffffffffffffffffffffffffffffffffffffffffffffffffffffff82612445565b61248c8683612445565b95508019841693508086168417925050509392505050565b6000819050919050565b60006124c96124c46124bf84611390565b6124a4565b611390565b9050919050565b6000819050919050565b6124e3836124ae565b6124f76124ef826124d0565b848454612452565b825550505050565b600090565b61250c6124ff565b6125178184846124da565b505050565b5b8181101561253b57612530600082612504565b60018101905061251d565b5050565b601f8211156125805761255181612420565b61255a84612435565b81016020851015612569578190505b61257d61257585612435565b83018261251c565b50505b505050565b600082821c905092915050565b60006125a360001984600802612585565b1980831691505092915050565b60006125bc8383612592565b9150826002028217905092915050565b6125d582611434565b67ffffffffffffffff8111156125ee576125ed6119d6565b5b6125f88254611be3565b61260382828561253f565b600060209050601f8311600181146126365760008415612624578287015190505b61262e85826125b0565b865550612696565b601f19841661264486612420565b60005b8281101561266c57848901518255600182019150602085019450602081019050612647565b868310156126895784890151612685601f891682612592565b8355505b6001600288020188555050505b505050505050565b60006126a982611390565b91506126b483611390565b92508282019050808211156126cc576126cb611dc4565b5b92915050565b60006060820190506126e760008301866114c4565b6126f46020830185611425565b8181036040830152612706818461148b565b905094935050505056fea2646970667358221220a9b81294e374a699b3b5f8c255007bd9fcb32c946ddee4bdbf5567db8c6025c464736f6c63430008130033",
  "linkReferences": {},
  "deployedLinkReferences": {}
}